{
  "contractName": "SupplyContract",
  "abi": [
    {
      "inputs": [
        {
          "internalType": "address",
          "name": "_itemToken",
          "type": "address"
        }
      ],
      "stateMutability": "nonpayable",
      "type": "constructor"
    },
    {
      "inputs": [
        {
          "internalType": "uint256",
          "name": "",
          "type": "uint256"
        }
      ],
      "name": "supplyData",
      "outputs": [
        {
          "internalType": "address",
          "name": "producer",
          "type": "address"
        },
        {
          "internalType": "enum SupplyContract.DeliveryStatus",
          "name": "deliveryStatus",
          "type": "uint8"
        }
      ],
      "stateMutability": "view",
      "type": "function",
      "constant": true
    },
    {
      "inputs": [
        {
          "internalType": "uint256",
          "name": "_auctionId",
          "type": "uint256"
        }
      ],
      "name": "deliveryStartByAuctionId",
      "outputs": [],
      "stateMutability": "nonpayable",
      "type": "function"
    },
    {
      "inputs": [
        {
          "internalType": "uint256",
          "name": "_auctionId",
          "type": "uint256"
        }
      ],
      "name": "deliveryEndByAuctionId",
      "outputs": [],
      "stateMutability": "nonpayable",
      "type": "function"
    },
    {
      "inputs": [
        {
          "internalType": "uint256",
          "name": "_auctionId",
          "type": "uint256"
        }
      ],
      "name": "deliveryPrepareByAuctionId",
      "outputs": [],
      "stateMutability": "nonpayable",
      "type": "function"
    },
    {
      "inputs": [
        {
          "internalType": "uint256",
          "name": "_auctionId",
          "type": "uint256"
        }
      ],
      "name": "getDeliveryStatusByAuctionId",
      "outputs": [
        {
          "internalType": "enum SupplyContract.DeliveryStatus",
          "name": "",
          "type": "uint8"
        }
      ],
      "stateMutability": "view",
      "type": "function",
      "constant": true
    },
    {
      "inputs": [
        {
          "internalType": "uint256",
          "name": "_auctionId",
          "type": "uint256"
        }
      ],
      "name": "getDeliveryTimeStampByAcutionId",
      "outputs": [
        {
          "internalType": "uint256[3]",
          "name": "",
          "type": "uint256[3]"
        }
      ],
      "stateMutability": "view",
      "type": "function",
      "constant": true
    },
    {
      "inputs": [
        {
          "internalType": "uint256",
          "name": "_auctionId",
          "type": "uint256"
        },
        {
          "internalType": "string",
          "name": "_envInfo",
          "type": "string"
        }
      ],
      "name": "pushEnvInformationByAuctionId",
      "outputs": [],
      "stateMutability": "nonpayable",
      "type": "function"
    },
    {
      "inputs": [
        {
          "internalType": "uint256",
          "name": "_auctionId",
          "type": "uint256"
        }
      ],
      "name": "getEnvInformationByAuctionId",
      "outputs": [
        {
          "internalType": "string[]",
          "name": "",
          "type": "string[]"
        }
      ],
      "stateMutability": "view",
      "type": "function",
      "constant": true
    },
    {
      "inputs": [
        {
          "internalType": "uint256",
          "name": "_auctionId",
          "type": "uint256"
        }
      ],
      "name": "inDelivery",
      "outputs": [
        {
          "internalType": "bool",
          "name": "",
          "type": "bool"
        }
      ],
      "stateMutability": "view",
      "type": "function",
      "constant": true
    }
  ],
  "bytecode": "0x608060405234801561001057600080fd5b506040516200101838038062001018833981810160405281019061003491906100dd565b806000806101000a81548173ffffffffffffffffffffffffffffffffffffffff021916908373ffffffffffffffffffffffffffffffffffffffff1602179055505061010a565b600080fd5b600073ffffffffffffffffffffffffffffffffffffffff82169050919050565b60006100aa8261007f565b9050919050565b6100ba8161009f565b81146100c557600080fd5b50565b6000815190506100d7816100b1565b92915050565b6000602082840312156100f3576100f261007a565b5b6000610101848285016100c8565b91505092915050565b610efe806200011a6000396000f3fe608060405234801561001057600080fd5b50600436106100935760003560e01c80638b030ce5116100665780638b030ce51461011c5780638e74b8561461014c578063987a34f81461017c5780639dedddec146101ad578063d9f235e7146101dd57610093565b806324fff8f01461009857806328d0cf19146100b45780632ec566c9146100d057806339fed91a14610100575b600080fd5b6100b260048036038101906100ad9190610688565b6101f9565b005b6100ce60048036038101906100c991906107fb565b61025f565b005b6100ea60048036038101906100e59190610688565b6102ac565b6040516100f791906109a1565b60405180910390f35b61011a60048036038101906101159190610688565b61039b565b005b61013660048036038101906101319190610688565b610401565b6040516101439190610a3a565b60405180910390f35b61016660048036038101906101619190610688565b61042e565b6040516101739190610b00565b60405180910390f35b61019660048036038101906101919190610688565b61048f565b6040516101a4929190610b5c565b60405180910390f35b6101c760048036038101906101c29190610688565b6104e0565b6040516101d49190610ba0565b60405180910390f35b6101f760048036038101906101f29190610688565b610534565b005b80600180600281111561020f5761020e6109c3565b5b6001600084815260200190815260200160002060040160149054906101000a900460ff166002811115610245576102446109c3565b5b1461024f57600080fd5b61025a83600261059a565b505050565b60016000838152602001908152602001600020600301819080600181540180825580915050600190039060005260206000200160009091909190915090816102a79190610dc7565b505050565b606060016000838152602001908152602001600020600301805480602002602001604051908101604052809291908181526020016000905b8282101561039057838290600052602060002001805461030390610bea565b80601f016020809104026020016040519081016040528092919081815260200182805461032f90610bea565b801561037c5780601f106103515761010080835404028352916020019161037c565b820191906000526020600020905b81548152906001019060200180831161035f57829003601f168201915b5050505050815260200190600101906102e4565b505050509050919050565b8060028060028111156103b1576103b06109c3565b5b6001600084815260200190815260200160002060040160149054906101000a900460ff1660028111156103e7576103e66109c3565b5b146103f157600080fd5b6103fc83600061059a565b505050565b60006001600083815260200190815260200160002060040160149054906101000a900460ff169050919050565b61043661061c565b60016000838152602001908152602001600020600001600380602002604051908101604052809291908260038015610483576020028201915b81548152602001906001019080831161046f575b50505050509050919050565b60016020528060005260406000206000915090508060040160009054906101000a900473ffffffffffffffffffffffffffffffffffffffff16908060040160149054906101000a900460ff16905082565b60008060028111156104f5576104f46109c3565b5b6001600084815260200190815260200160002060040160149054906101000a900460ff16600281111561052b5761052a6109c3565b5b14159050919050565b80600080600281111561054a576105496109c3565b5b6001600084815260200190815260200160002060040160149054906101000a900460ff1660028111156105805761057f6109c3565b5b1461058a57600080fd5b61059583600161059a565b505050565b806001600084815260200190815260200160002060040160146101000a81548160ff021916908360028111156105d3576105d26109c3565b5b02179055504260016000848152602001908152602001600020600001826002811115610602576106016109c3565b5b6003811061061357610612610e99565b5b01819055505050565b6040518060600160405280600390602082028036833780820191505090505090565b6000604051905090565b600080fd5b600080fd5b6000819050919050565b61066581610652565b811461067057600080fd5b50565b6000813590506106828161065c565b92915050565b60006020828403121561069e5761069d610648565b5b60006106ac84828501610673565b91505092915050565b600080fd5b600080fd5b6000601f19601f8301169050919050565b7f4e487b7100000000000000000000000000000000000000000000000000000000600052604160045260246000fd5b610708826106bf565b810181811067ffffffffffffffff82111715610727576107266106d0565b5b80604052505050565b600061073a61063e565b905061074682826106ff565b919050565b600067ffffffffffffffff821115610766576107656106d0565b5b61076f826106bf565b9050602081019050919050565b82818337600083830152505050565b600061079e6107998461074b565b610730565b9050828152602081018484840111156107ba576107b96106ba565b5b6107c584828561077c565b509392505050565b600082601f8301126107e2576107e16106b5565b5b81356107f284826020860161078b565b91505092915050565b6000806040838503121561081257610811610648565b5b600061082085828601610673565b925050602083013567ffffffffffffffff8111156108415761084061064d565b5b61084d858286016107cd565b9150509250929050565b600081519050919050565b600082825260208201905092915050565b6000819050602082019050919050565b600081519050919050565b600082825260208201905092915050565b60005b838110156108bd5780820151818401526020810190506108a2565b838111156108cc576000848401525b50505050565b60006108dd82610883565b6108e7818561088e565b93506108f781856020860161089f565b610900816106bf565b840191505092915050565b600061091783836108d2565b905092915050565b6000602082019050919050565b600061093782610857565b6109418185610862565b93508360208202850161095385610873565b8060005b8581101561098f5784840389528151610970858261090b565b945061097b8361091f565b925060208a01995050600181019050610957565b50829750879550505050505092915050565b600060208201905081810360008301526109bb818461092c565b905092915050565b7f4e487b7100000000000000000000000000000000000000000000000000000000600052602160045260246000fd5b60038110610a0357610a026109c3565b5b50565b6000819050610a14826109f2565b919050565b6000610a2482610a06565b9050919050565b610a3481610a19565b82525050565b6000602082019050610a4f6000830184610a2b565b92915050565b600060039050919050565b600081905092915050565b6000819050919050565b610a7e81610652565b82525050565b6000610a908383610a75565b60208301905092915050565b6000602082019050919050565b610ab281610a55565b610abc8184610a60565b9250610ac782610a6b565b8060005b83811015610af8578151610adf8782610a84565b9650610aea83610a9c565b925050600181019050610acb565b505050505050565b6000606082019050610b156000830184610aa9565b92915050565b600073ffffffffffffffffffffffffffffffffffffffff82169050919050565b6000610b4682610b1b565b9050919050565b610b5681610b3b565b82525050565b6000604082019050610b716000830185610b4d565b610b7e6020830184610a2b565b9392505050565b60008115159050919050565b610b9a81610b85565b82525050565b6000602082019050610bb56000830184610b91565b92915050565b7f4e487b7100000000000000000000000000000000000000000000000000000000600052602260045260246000fd5b60006002820490506001821680610c0257607f821691505b602082108103610c1557610c14610bbb565b5b50919050565b60008190508160005260206000209050919050565b60006020601f8301049050919050565b600082821b905092915050565b600060088302610c7d7fffffffffffffffffffffffffffffffffffffffffffffffffffffffffffffffff82610c40565b610c878683610c40565b95508019841693508086168417925050509392505050565b6000819050919050565b6000610cc4610cbf610cba84610652565b610c9f565b610652565b9050919050565b6000819050919050565b610cde83610ca9565b610cf2610cea82610ccb565b848454610c4d565b825550505050565b600090565b610d07610cfa565b610d12818484610cd5565b505050565b5b81811015610d3657610d2b600082610cff565b600181019050610d18565b5050565b601f821115610d7b57610d4c81610c1b565b610d5584610c30565b81016020851015610d64578190505b610d78610d7085610c30565b830182610d17565b50505b505050565b600082821c905092915050565b6000610d9e60001984600802610d80565b1980831691505092915050565b6000610db78383610d8d565b9150826002028217905092915050565b610dd082610883565b67ffffffffffffffff811115610de957610de86106d0565b5b610df38254610bea565b610dfe828285610d3a565b600060209050601f831160018114610e315760008415610e1f578287015190505b610e298582610dab565b865550610e91565b601f198416610e3f86610c1b565b60005b82811015610e6757848901518255600182019150602085019450602081019050610e42565b86831015610e845784890151610e80601f891682610d8d565b8355505b6001600288020188555050505b505050505050565b7f4e487b7100000000000000000000000000000000000000000000000000000000600052603260045260246000fdfea26469706673582212203bd328c27db3940a5a2de5e65a3f64759aa09c947b397309886ac5730066809064736f6c634300080f0033",
  "immutableReferences": {},
  "source": "// SPDX-License-Identifier: MIT\n\n\npragma solidity >=0.5.16;\n\nimport \"./Item.sol\";\n\ncontract SupplyContract {\n\n    ItemContract itemToken;\n\n    constructor(address _itemToken)\n    {\n        itemToken = ItemContract(_itemToken);\n    }\n\n    enum DeliveryStatus{\n        Empty,\n        Prepare,\n        Delivery\n    }\n\n    struct SupplyData{\n        uint256[3] deliveryTimeStamp;\n        string [] envInformation;\n        address producer;\n        DeliveryStatus deliveryStatus;\n    }\n\n    mapping(uint256 => SupplyData) public supplyData; // auctionId -> supplyData\n\n    modifier inState(uint256 _auctionId, DeliveryStatus _deliveryStatus) {\n        require(supplyData[_auctionId].deliveryStatus == _deliveryStatus);\n        _;\n    }\n\n    function updateDeliveryStatus(uint256 _auctionId, DeliveryStatus _deliveryStatus) internal {\n        supplyData[_auctionId].deliveryStatus = _deliveryStatus;\n        supplyData[_auctionId].deliveryTimeStamp[uint(_deliveryStatus)] = block.timestamp;\n    }\n\n    function deliveryStartByAuctionId(uint256 _auctionId) public inState(_auctionId, DeliveryStatus.Prepare){\n        updateDeliveryStatus(_auctionId, DeliveryStatus.Delivery);\n    }\n\n    function deliveryEndByAuctionId(uint256 _auctionId) public inState(_auctionId, DeliveryStatus.Delivery){\n        updateDeliveryStatus(_auctionId, DeliveryStatus.Empty);\n    }\n\n    function deliveryPrepareByAuctionId(uint256 _auctionId) public inState(_auctionId, DeliveryStatus.Empty){\n        updateDeliveryStatus(_auctionId, DeliveryStatus.Prepare);\n    }\n\n    function getDeliveryStatusByAuctionId(uint256 _auctionId) public view returns(DeliveryStatus){\n        return supplyData[_auctionId].deliveryStatus;\n    }\n\n    function getDeliveryTimeStampByAcutionId(uint256 _auctionId) public view returns(uint256[3] memory){\n        return supplyData[_auctionId].deliveryTimeStamp;\n    }\n\n    //   \n    function pushEnvInformationByAuctionId(uint256 _auctionId, string memory _envInfo) public{\n        supplyData[_auctionId].envInformation.push(_envInfo);\n    } //  \n\n    function getEnvInformationByAuctionId(uint256 _auctionId) public view returns(string[] memory){\n        return supplyData[_auctionId].envInformation;\n    } //  \n\n    function inDelivery(uint256 _auctionId) public view returns(bool){\n        return (supplyData[_auctionId].deliveryStatus != DeliveryStatus.Empty);\n    }\n}",
  "sourcePath": "/Users/c_rbi/Downloads/PNU-milknmeat/PNU-milknmeat/back-end/smart_contract/contracts/Supply.sol",
  "compiler": {
    "name": "solc",
    "version": "0.8.15+commit.e14f2714.Emscripten.clang"
  },
  "schemaVersion": "3.4.10",
  "updatedAt": "2022-10-27T01:03:37.511Z",
  "networkType": "ethereum",
  "devdoc": {
    "kind": "dev",
    "methods": {},
    "version": 1
  },
  "userdoc": {
    "kind": "user",
    "methods": {},
    "version": 1
  }
}